{
  "contractName": "evote",
  "abi": [
    {
      "constant": true,
      "inputs": [],
      "name": "candidatesCount",
      "outputs": [
        {
          "name": "",
          "type": "uint256"
        }
      ],
      "payable": false,
      "stateMutability": "view",
      "type": "function"
    },
    {
      "constant": true,
      "inputs": [
        {
          "name": "",
          "type": "uint256"
        }
      ],
      "name": "candidates",
      "outputs": [
        {
          "name": "cid",
          "type": "uint256"
        },
        {
          "name": "name",
          "type": "string"
        },
        {
          "name": "voteCount",
          "type": "uint256"
        }
      ],
      "payable": false,
      "stateMutability": "view",
      "type": "function"
    },
    {
      "constant": true,
      "inputs": [],
      "name": "voterCount",
      "outputs": [
        {
          "name": "",
          "type": "uint256"
        }
      ],
      "payable": false,
      "stateMutability": "view",
      "type": "function"
    },
    {
      "constant": true,
      "inputs": [
        {
          "name": "",
          "type": "address"
        }
      ],
      "name": "voterids",
      "outputs": [
        {
          "name": "eid",
          "type": "uint256"
        }
      ],
      "payable": false,
      "stateMutability": "view",
      "type": "function"
    },
    {
      "constant": true,
      "inputs": [
        {
          "name": "",
          "type": "uint256"
        }
      ],
      "name": "voters",
      "outputs": [
        {
          "name": "vid",
          "type": "uint256"
        },
        {
          "name": "voted",
          "type": "bool"
        },
        {
          "name": "vote",
          "type": "uint8"
        },
        {
          "name": "registered",
          "type": "bool"
        },
        {
          "name": "vadd",
          "type": "address"
        }
      ],
      "payable": false,
      "stateMutability": "view",
      "type": "function"
    },
    {
      "inputs": [],
      "payable": false,
      "stateMutability": "nonpayable",
      "type": "constructor"
    },
    {
      "constant": false,
      "inputs": [
        {
          "name": "toVoter",
          "type": "uint256"
        }
      ],
      "name": "giveRightToVote",
      "outputs": [],
      "payable": false,
      "stateMutability": "nonpayable",
      "type": "function"
    },
    {
      "constant": false,
      "inputs": [
        {
          "name": "toVoter",
          "type": "uint256"
        }
      ],
      "name": "registerToVote",
      "outputs": [],
      "payable": false,
      "stateMutability": "nonpayable",
      "type": "function"
    },
    {
      "constant": false,
      "inputs": [
        {
          "name": "toCandidate",
          "type": "uint8"
        }
      ],
      "name": "vote",
      "outputs": [],
      "payable": false,
      "stateMutability": "nonpayable",
      "type": "function"
    },
    {
      "constant": true,
      "inputs": [],
      "name": "winner",
      "outputs": [
        {
          "name": "_winner",
          "type": "uint8"
        }
      ],
      "payable": false,
      "stateMutability": "view",
      "type": "function"
    }
  ],
  "bytecode": "0x6080604052600060015534801561001557600080fd5b50600080546001600160a01b0319163317905560408051808201909152600b81527f43616e646964617465203100000000000000000000000000000000000000000060208083019190915261006e91906100fb811b901c565b6100b26040518060400160405280600b81526020017f43616e64696461746520320000000000000000000000000000000000000000008152506100fb60201b60201c565b6100f66040518060400160405280600b81526020017f43616e64696461746520330000000000000000000000000000000000000000008152506100fb60201b60201c565b6101f8565b600580546001908101918290556040805160608101825283815260208082018681526000838501819052958652600482529290942081518155915180519194929361014c939085019291019061015d565b506040820151816002015590505050565b828054600181600116156101000203166002900490600052602060002090601f016020900481019282601f1061019e57805160ff19168380011785556101cb565b828001600101855582156101cb579182015b828111156101cb5782518255916020019190600101906101b0565b506101d79291506101db565b5090565b6101f591905b808211156101d757600081556001016101e1565b90565b610545806102076000396000f3fe608060405234801561001057600080fd5b50600436106100935760003560e01c80637115a50a116100665780637115a50a1461017c578063b3f98adc146101a2578063bc23bd51146101c2578063da58c7d9146101df578063dfbf53ae1461023457610093565b806314a25ee9146100985780632d35a8a2146100b75780633477ee2e146100d157806342169e4814610174575b600080fd5b6100b5600480360360208110156100ae57600080fd5b5035610252565b005b6100bf6102dc565b60408051918252519081900360200190f35b6100ee600480360360208110156100e757600080fd5b50356102e2565b6040518084815260200180602001838152602001828103825284818151815260200191508051906020019080838360005b8381101561013757818101518382015260200161011f565b50505050905090810190601f1680156101645780820380516001836020036101000a031916815260200191505b5094505050505060405180910390f35b6100bf61038f565b6100bf6004803603602081101561019257600080fd5b50356001600160a01b0316610395565b6100b5600480360360208110156101b857600080fd5b503560ff166103a7565b6100b5600480360360208110156101d857600080fd5b5035610450565b6101fc600480360360208110156101f557600080fd5b5035610480565b60408051958652931515602086015260ff90921684840152151560608401526001600160a01b03166080830152519081900360a00190f35b61023c6104bf565b6040805160ff9092168252519081900360200190f35b60008181526002602052604090205415801590610287575060008181526002602052604090206001015462010000900460ff16155b156102d9573360008181526003602090815260408083208590558483526002909152902060010180546201000062ff000019909116176301000000600160b81b03191663010000009092029190911790555b50565b60055481565b6004602090815260009182526040918290208054600180830180548651600293821615610100026000190190911692909204601f81018690048602830186019096528582529194929390929083018282801561037f5780601f106103545761010080835404028352916020019161037f565b820191906000526020600020905b81548152906001019060200180831161036257829003601f168201915b5050505050908060020154905083565b60015481565b60036020526000908152604090205481565b3360009081526003602090815260408083205480845260029092529091206001015460ff16806103db57506005548260ff16115b806103fe575060008181526002602052604090206001015462010000900460ff16155b1561040957506102d9565b60009081526002602081815260408084206001908101805460ff1916821761ff00191661010060ff9890981697880217905594845260049091529091200180549091019055565b6000546001600160a01b03163314610467576102d9565b6001805481019055600081815260026020526040902055565b6002602052600090815260409020805460019091015460ff8082169161010081048216916201000082041690630100000090046001600160a01b031685565b60008060015b6005548160ff1610156105145760ff811660009081526004602052604090206002015482101561050c5760ff81166000908152600460205260409020600201549092509050815b6001016104c5565b50509056fea165627a7a72305820e527de6c4b92b3bab9665c38128f22d768f97289001393d2edb96589db9f70c60029",
  "source": "pragma solidity >=0.4.22 <0.6.0;\ncontract evote {\n\n    struct Voter {\n        uint vid;\n        bool voted;\n        uint8 vote;\n        bool registered;\n        address vadd;\n    }\n    \n    struct Candidate {\n        uint cid;\n        string name;\n        uint voteCount;\n    }\n    //add secret hash and ref no.\n    struct VoterId {\n        uint eid;\n    }\n    \n    address admin;\n    uint256 public voterCount=0;\n    mapping(uint => Voter) public voters;\n    mapping(address=> VoterId) public voterids;\n    mapping(uint => Candidate) public candidates;\n    uint public candidatesCount;\n   \n    constructor() public {\n        admin = msg.sender;\n        addCandidate(\"Candidate 1\");\n    addCandidate(\"Candidate 2\");\n    addCandidate(\"Candidate 3\");\n        }\n        \n    function addCandidate (string memory _name) private {\n    candidatesCount ++;\n    candidates[candidatesCount] = Candidate(candidatesCount, _name, 0);\n  }\n    \n    function giveRightToVote(uint toVoter) public {\n        if (msg.sender != admin) return;\n        voterCount+=1;\n        voters[toVoter].vid = toVoter;\n        \n    }\n    //need to include otp thing\n    function registerToVote(uint toVoter) public {\n        if(voters[toVoter].vid!=0 && voters[toVoter].registered==false){\n        voterids[msg.sender].eid=toVoter;\n        voters[toVoter].registered=true;\n        voters[toVoter].vadd=msg.sender;\n        }\n        \n    }\n    \n    function vote(uint8 toCandidate) public {\n        uint voterid;\n        voterid=voterids[msg.sender].eid;\n        if (voters[voterid].voted || toCandidate > candidatesCount || voters[voterid].registered==false) return;\n        \n        voters[voterid].voted = true;\n        \n        voters[voterid].vote = toCandidate;\n        candidates[toCandidate].voteCount += 1;\n    }\n    \n    function winner() public view returns (uint8 _winner) {\n        uint256 winnerVoteCount = 0;\n        for (uint8 cand = 1; cand < candidatesCount; cand++)\n            if (candidates[cand].voteCount > winnerVoteCount) {\n                winnerVoteCount = candidates[cand].voteCount;\n                _winner = cand;\n            }\n    }\n    \n}",
  "sourcePath": "F:/registration-master/registration/contracts/evote.sol",
  "compiler": {
    "name": "solc",
    "version": "0.5.8+commit.23d335f2.Emscripten.clang"
  },
  "schemaVersion": "3.0.17",
  "updatedAt": "2020-01-30T18:50:14.848Z",
  "networkType": "ethereum",
  "devdoc": {
    "methods": {}
  },
  "userdoc": {
    "methods": {}
  }
}