{
  "contractName": "evote",
  "abi": [
    {
      "constant": true,
      "inputs": [],
      "name": "candidatesCount",
      "outputs": [
        {
          "name": "",
          "type": "uint256"
        }
      ],
      "payable": false,
      "stateMutability": "view",
      "type": "function"
    },
    {
      "constant": true,
      "inputs": [
        {
          "name": "",
          "type": "uint256"
        }
      ],
      "name": "candidates",
      "outputs": [
        {
          "name": "cid",
          "type": "uint256"
        },
        {
          "name": "name",
          "type": "string"
        },
        {
          "name": "voteCount",
          "type": "uint256"
        }
      ],
      "payable": false,
      "stateMutability": "view",
      "type": "function"
    },
    {
      "constant": true,
      "inputs": [
        {
          "name": "",
          "type": "address"
        }
      ],
      "name": "voterids",
      "outputs": [
        {
          "name": "eid",
          "type": "uint256"
        }
      ],
      "payable": false,
      "stateMutability": "view",
      "type": "function"
    },
    {
      "constant": true,
      "inputs": [
        {
          "name": "",
          "type": "uint256"
        }
      ],
      "name": "voters",
      "outputs": [
        {
          "name": "vid",
          "type": "uint256"
        },
        {
          "name": "voted",
          "type": "bool"
        },
        {
          "name": "vote",
          "type": "uint8"
        },
        {
          "name": "registered",
          "type": "bool"
        },
        {
          "name": "vadd",
          "type": "address"
        },
        {
          "name": "email",
          "type": "string"
        },
        {
          "name": "constituency",
          "type": "string"
        }
      ],
      "payable": false,
      "stateMutability": "view",
      "type": "function"
    },
    {
      "inputs": [],
      "payable": false,
      "stateMutability": "nonpayable",
      "type": "constructor"
    },
    {
      "constant": false,
      "inputs": [
        {
          "name": "toVoter",
          "type": "uint256"
        },
        {
          "name": "em",
          "type": "string"
        },
        {
          "name": "cons",
          "type": "string"
        }
      ],
      "name": "giveRightToVote",
      "outputs": [],
      "payable": false,
      "stateMutability": "nonpayable",
      "type": "function"
    },
    {
      "constant": false,
      "inputs": [
        {
          "name": "toVoter",
          "type": "uint256"
        }
      ],
      "name": "registerToVote",
      "outputs": [],
      "payable": false,
      "stateMutability": "nonpayable",
      "type": "function"
    },
    {
      "constant": false,
      "inputs": [
        {
          "name": "toCandidate",
          "type": "uint8"
        }
      ],
      "name": "vote",
      "outputs": [],
      "payable": false,
      "stateMutability": "nonpayable",
      "type": "function"
    },
    {
      "constant": true,
      "inputs": [],
      "name": "winner",
      "outputs": [
        {
          "name": "_winner",
          "type": "uint8"
        }
      ],
      "payable": false,
      "stateMutability": "view",
      "type": "function"
    }
  ],
  "bytecode": "0x6080604052600060015534801561001557600080fd5b50600080546001600160a01b0319163317905560408051808201909152600b81527f43616e646964617465203100000000000000000000000000000000000000000060208083019190915261006e91906100fb811b901c565b6100b26040518060400160405280600b81526020017f43616e64696461746520320000000000000000000000000000000000000000008152506100fb60201b60201c565b6100f66040518060400160405280600b81526020017f43616e64696461746520330000000000000000000000000000000000000000008152506100fb60201b60201c565b6101f8565b600580546001908101918290556040805160608101825283815260208082018681526000838501819052958652600482529290942081518155915180519194929361014c939085019291019061015d565b506040820151816002015590505050565b828054600181600116156101000203166002900490600052602060002090601f016020900481019282601f1061019e57805160ff19168380011785556101cb565b828001600101855582156101cb579182015b828111156101cb5782518255916020019190600101906101b0565b506101d79291506101db565b5090565b6101f591905b808211156101d757600081556001016101e1565b90565b61092e806102076000396000f3fe608060405234801561001057600080fd5b50600436106100885760003560e01c8063756ee61c1161005b578063756ee61c1461018f578063b3f98adc146102c3578063da58c7d9146102e3578063dfbf53ae1461042157610088565b806314a25ee91461008d5780632d35a8a2146100ac5780633477ee2e146100c65780637115a50a14610169575b600080fd5b6100aa600480360360208110156100a357600080fd5b503561043f565b005b6100b46104c9565b60408051918252519081900360200190f35b6100e3600480360360208110156100dc57600080fd5b50356104cf565b6040518084815260200180602001838152602001828103825284818151815260200191508051906020019080838360005b8381101561012c578181015183820152602001610114565b50505050905090810190601f1680156101595780820380516001836020036101000a031916815260200191505b5094505050505060405180910390f35b6100b46004803603602081101561017f57600080fd5b50356001600160a01b031661057c565b6100aa600480360360608110156101a557600080fd5b813591908101906040810160208201356401000000008111156101c757600080fd5b8201836020820111156101d957600080fd5b803590602001918460018302840111640100000000831117156101fb57600080fd5b91908080601f016020809104026020016040519081016040528093929190818152602001838380828437600092019190915250929594936020810193503591505064010000000081111561024e57600080fd5b82018360208201111561026057600080fd5b8035906020019184600183028401116401000000008311171561028257600080fd5b91908080601f01602080910402602001604051908101604052809392919081815260200183838082843760009201919091525092955061058e945050505050565b6100aa600480360360208110156102d957600080fd5b503560ff16610602565b610300600480360360208110156102f957600080fd5b50356106ab565b60405180888152602001871515151581526020018660ff1660ff16815260200185151515158152602001846001600160a01b03166001600160a01b031681526020018060200180602001838103835285818151815260200191508051906020019080838360005b8381101561037f578181015183820152602001610367565b50505050905090810190601f1680156103ac5780820380516001836020036101000a031916815260200191505b50838103825284518152845160209182019186019080838360005b838110156103df5781810151838201526020016103c7565b50505050905090810190601f16801561040c5780820380516001836020036101000a031916815260200191505b50995050505050505050505060405180910390f35b61042961080d565b6040805160ff9092168252519081900360200190f35b60008181526002602052604090205415801590610474575060008181526002602052604090206001015462010000900460ff16155b156104c6573360008181526003602090815260408083208590558483526002909152902060010180546201000062ff000019909116176301000000600160b81b03191663010000009092029190911790555b50565b60055481565b6004602090815260009182526040918290208054600180830180548651600293821615610100026000190190911692909204601f81018690048602830186019096528582529194929390929083018282801561056c5780601f106105415761010080835404028352916020019161056c565b820191906000526020600020905b81548152906001019060200180831161054f57829003601f168201915b5050505050908060020154905083565b60036020526000908152604090205481565b6000546001600160a01b031633146105a5576105fd565b6001805481019055600083815260026020818152604090922085815584516105d593919092019190850190610867565b50600083815260026020908152604090912082516105fb92600390920191840190610867565b505b505050565b3360009081526003602090815260408083205480845260029092529091206001015460ff168061063657506005548260ff16115b80610659575060008181526002602052604090206001015462010000900460ff16155b1561066457506104c6565b60009081526002602081815260408084206001908101805460ff1916821761ff00191661010060ff9890981697880217905594845260049091529091200180549091019055565b6002602081815260009283526040928390208054600180830154838601805488516101009482161585026000190190911697909704601f8101879004870288018701909852878752929660ff808316979383048116966201000084049091169563010000009093046001600160a01b03169492939291908301828280156107735780601f1061074857610100808354040283529160200191610773565b820191906000526020600020905b81548152906001019060200180831161075657829003601f168201915b5050505060038301805460408051602060026001851615610100026000190190941693909304601f81018490048402820184019092528181529495949350908301828280156108035780601f106107d857610100808354040283529160200191610803565b820191906000526020600020905b8154815290600101906020018083116107e657829003601f168201915b5050505050905087565b60008060015b6005548160ff1610156108625760ff811660009081526004602052604090206002015482101561085a5760ff81166000908152600460205260409020600201549092509050815b600101610813565b505090565b828054600181600116156101000203166002900490600052602060002090601f016020900481019282601f106108a857805160ff19168380011785556108d5565b828001600101855582156108d5579182015b828111156108d55782518255916020019190600101906108ba565b506108e19291506108e5565b5090565b6108ff91905b808211156108e157600081556001016108eb565b9056fea165627a7a72305820f70aff80eb864dd090d5420e2c4ba31e81a6c3251e6e39abc96a5612eaf6646f0029",
  "source": "pragma solidity >=0.4.22 <0.6.0;\ncontract evote {\n\n    struct Voter {\n        uint vid;\n        bool voted;\n        uint8 vote;\n        bool registered;\n        address vadd;\n        string email;\n        string constituency;\n    }\n    \n    struct Candidate {\n        uint cid;\n        string name;\n        uint voteCount;\n    }\n    //add secret hash and ref no.\n    struct VoterId {\n        uint eid;\n    }\n    \n    address admin;\n    uint256 voterCount=0;\n    mapping(uint => Voter) public voters;\n    mapping(address=> VoterId) public voterids;\n    mapping(uint => Candidate) public candidates;\n    uint public candidatesCount;\n   \n    constructor() public {\n        admin = msg.sender;\n        addCandidate(\"Candidate 1\");\n        addCandidate(\"Candidate 2\");\n        addCandidate(\"Candidate 3\");\n        }\n        \n    function addCandidate (string memory _name) private {\n        candidatesCount ++;\n        candidates[candidatesCount] = Candidate(candidatesCount, _name, 0);\n    }\n    \n    function giveRightToVote(uint toVoter, string memory em, string memory cons) public {\n        if (msg.sender != admin) return;\n        voterCount+=1;\n        voters[toVoter].vid = toVoter;\n        voters[toVoter].email = em;\n        voters[toVoter].constituency = cons;\n        \n    }\n    //need to include otp thing\n    function registerToVote(uint toVoter) public {\n        if(voters[toVoter].vid!=0 && voters[toVoter].registered==false){\n        voterids[msg.sender].eid=toVoter;\n        voters[toVoter].registered=true;\n        voters[toVoter].vadd=msg.sender;\n        }\n        \n    }\n    \n    function vote(uint8 toCandidate) public {\n        uint voterid;\n        voterid=voterids[msg.sender].eid;\n        if (voters[voterid].voted || toCandidate > candidatesCount || voters[voterid].registered==false) return;\n        \n        voters[voterid].voted = true;\n        \n        voters[voterid].vote = toCandidate;\n        candidates[toCandidate].voteCount += 1;\n    }\n    \n    function winner() public view returns (uint8 _winner) {\n        uint256 winnerVoteCount = 0;\n        for (uint8 cand = 1; cand < candidatesCount; cand++)\n            if (candidates[cand].voteCount > winnerVoteCount) {\n                winnerVoteCount = candidates[cand].voteCount;\n                _winner = cand;\n            }\n    }\n    \n}",
  "sourcePath": "F:/BV/BV_Truffle/contracts/evote.sol",
  "compiler": {
    "name": "solc",
    "version": "0.5.8+commit.23d335f2.Emscripten.clang"
  },
  "schemaVersion": "3.0.17",
  "updatedAt": "2020-01-31T14:47:59.886Z",
  "networkType": "ethereum",
  "devdoc": {
    "methods": {}
  },
  "userdoc": {
    "methods": {}
  }
}