{
  "contractName": "evote",
  "abi": [
    {
      "constant": true,
      "inputs": [],
      "name": "constituency_exist",
      "outputs": [
        {
          "name": "",
          "type": "bool"
        }
      ],
      "payable": false,
      "stateMutability": "view",
      "type": "function"
    },
    {
      "constant": true,
      "inputs": [],
      "name": "candidatesCount",
      "outputs": [
        {
          "name": "",
          "type": "uint256"
        }
      ],
      "payable": false,
      "stateMutability": "view",
      "type": "function"
    },
    {
      "constant": true,
      "inputs": [],
      "name": "nowTime",
      "outputs": [
        {
          "name": "",
          "type": "uint256"
        }
      ],
      "payable": false,
      "stateMutability": "view",
      "type": "function"
    },
    {
      "constant": true,
      "inputs": [
        {
          "name": "",
          "type": "uint256"
        }
      ],
      "name": "candidates",
      "outputs": [
        {
          "name": "cid",
          "type": "uint256"
        },
        {
          "name": "name",
          "type": "string"
        },
        {
          "name": "voteCount",
          "type": "uint256"
        },
        {
          "name": "constituencyId",
          "type": "uint256"
        },
        {
          "name": "constituencyName",
          "type": "string"
        },
        {
          "name": "party_name",
          "type": "string"
        }
      ],
      "payable": false,
      "stateMutability": "view",
      "type": "function"
    },
    {
      "constant": true,
      "inputs": [],
      "name": "voterCount",
      "outputs": [
        {
          "name": "",
          "type": "uint256"
        }
      ],
      "payable": false,
      "stateMutability": "view",
      "type": "function"
    },
    {
      "constant": true,
      "inputs": [],
      "name": "startVote",
      "outputs": [
        {
          "name": "",
          "type": "uint256"
        }
      ],
      "payable": false,
      "stateMutability": "view",
      "type": "function"
    },
    {
      "constant": true,
      "inputs": [],
      "name": "constituencyCount",
      "outputs": [
        {
          "name": "",
          "type": "uint256"
        }
      ],
      "payable": false,
      "stateMutability": "view",
      "type": "function"
    },
    {
      "constant": true,
      "inputs": [
        {
          "name": "",
          "type": "address"
        }
      ],
      "name": "voterids",
      "outputs": [
        {
          "name": "eid",
          "type": "uint256"
        },
        {
          "name": "hash",
          "type": "bytes32"
        }
      ],
      "payable": false,
      "stateMutability": "view",
      "type": "function"
    },
    {
      "constant": true,
      "inputs": [
        {
          "name": "",
          "type": "uint256"
        }
      ],
      "name": "constituencies",
      "outputs": [
        {
          "name": "const_id",
          "type": "uint256"
        },
        {
          "name": "const_name",
          "type": "string"
        },
        {
          "name": "winner_id",
          "type": "uint256"
        }
      ],
      "payable": false,
      "stateMutability": "view",
      "type": "function"
    },
    {
      "constant": true,
      "inputs": [],
      "name": "endVote",
      "outputs": [
        {
          "name": "",
          "type": "uint256"
        }
      ],
      "payable": false,
      "stateMutability": "view",
      "type": "function"
    },
    {
      "constant": true,
      "inputs": [
        {
          "name": "",
          "type": "uint256"
        }
      ],
      "name": "voters",
      "outputs": [
        {
          "name": "vid",
          "type": "uint256"
        },
        {
          "name": "voted",
          "type": "bool"
        },
        {
          "name": "vote",
          "type": "uint256"
        },
        {
          "name": "registered",
          "type": "bool"
        },
        {
          "name": "vadd",
          "type": "address"
        },
        {
          "name": "email",
          "type": "string"
        },
        {
          "name": "con_id",
          "type": "uint256"
        },
        {
          "name": "constituency",
          "type": "string"
        }
      ],
      "payable": false,
      "stateMutability": "view",
      "type": "function"
    },
    {
      "constant": true,
      "inputs": [],
      "name": "admin",
      "outputs": [
        {
          "name": "",
          "type": "address"
        }
      ],
      "payable": false,
      "stateMutability": "view",
      "type": "function"
    },
    {
      "inputs": [],
      "payable": false,
      "stateMutability": "nonpayable",
      "type": "constructor"
    },
    {
      "constant": false,
      "inputs": [
        {
          "name": "startv",
          "type": "uint256"
        },
        {
          "name": "endv",
          "type": "uint256"
        }
      ],
      "name": "setDates",
      "outputs": [],
      "payable": false,
      "stateMutability": "nonpayable",
      "type": "function"
    },
    {
      "constant": false,
      "inputs": [
        {
          "name": "toCandidate",
          "type": "uint256"
        },
        {
          "name": "_name",
          "type": "string"
        },
        {
          "name": "_constid",
          "type": "uint256"
        },
        {
          "name": "_constname",
          "type": "string"
        },
        {
          "name": "_partyname",
          "type": "string"
        },
        {
          "name": "votes",
          "type": "uint256"
        }
      ],
      "name": "addCandidate",
      "outputs": [],
      "payable": false,
      "stateMutability": "nonpayable",
      "type": "function"
    },
    {
      "constant": false,
      "inputs": [
        {
          "name": "toVoter",
          "type": "uint256"
        },
        {
          "name": "em",
          "type": "string"
        },
        {
          "name": "con_id",
          "type": "uint256"
        },
        {
          "name": "cons",
          "type": "string"
        }
      ],
      "name": "giveRightToVote",
      "outputs": [],
      "payable": false,
      "stateMutability": "nonpayable",
      "type": "function"
    },
    {
      "constant": false,
      "inputs": [
        {
          "name": "toVoter",
          "type": "uint256"
        }
      ],
      "name": "registerToVote",
      "outputs": [],
      "payable": false,
      "stateMutability": "nonpayable",
      "type": "function"
    },
    {
      "constant": false,
      "inputs": [
        {
          "name": "_hash",
          "type": "bytes32"
        }
      ],
      "name": "storeHash",
      "outputs": [],
      "payable": false,
      "stateMutability": "nonpayable",
      "type": "function"
    },
    {
      "constant": false,
      "inputs": [
        {
          "name": "toCandidate",
          "type": "uint256"
        }
      ],
      "name": "vote",
      "outputs": [],
      "payable": false,
      "stateMutability": "nonpayable",
      "type": "function"
    },
    {
      "constant": true,
      "inputs": [],
      "name": "winner",
      "outputs": [
        {
          "name": "_winner",
          "type": "uint256"
        }
      ],
      "payable": false,
      "stateMutability": "view",
      "type": "function"
    },
    {
      "constant": true,
      "inputs": [
        {
          "name": "s",
          "type": "string"
        }
      ],
      "name": "testKeccak",
      "outputs": [
        {
          "name": "",
          "type": "bytes32"
        }
      ],
      "payable": false,
      "stateMutability": "pure",
      "type": "function"
    }
  ],
  "bytecode": "0x608060405260006001556007805460ff1916905534801561001f57600080fd5b50600080546001600160a01b03191633179055611258806100416000396000f3fe608060405234801561001057600080fd5b506004361061012b5760003560e01c80636c33f1a8116100ad578063b922394611610071578063b9223946146107d2578063da58c7d9146107da578063dedf141e14610919578063dfbf53ae1461093c578063f851a440146109445761012b565b80636c33f1a81461050c5780637115a50a146105145780637fe88885146105535780639209416a146105705780639c7f0c34146106135761012b565b8063335f1b37116100f4578063335f1b37146102465780633477ee2e1461024e57806342169e48146103c4578063455fe802146103cc5780634c0a6af0146105045761012b565b806263f79d146101305780630121b93f1461014c57806314a25ee91461016b57806314b05a38146101885780632d35a8a21461023e575b600080fd5b610138610968565b604080519115158252519081900360200190f35b6101696004803603602081101561016257600080fd5b5035610971565b005b6101696004803603602081101561018157600080fd5b5035610a17565b61022c6004803603602081101561019e57600080fd5b810190602081018135600160201b8111156101b857600080fd5b8201836020820111156101ca57600080fd5b803590602001918460018302840111600160201b831117156101eb57600080fd5b91908080601f016020809104026020016040519081016040528093929190818152602001838380828437600092019190915250929550610a91945050505050565b60408051918252519081900360200190f35b61022c610b08565b61022c610b0e565b61026b6004803603602081101561026457600080fd5b5035610b14565b60405180878152602001806020018681526020018581526020018060200180602001848103845289818151815260200191508051906020019080838360005b838110156102c25781810151838201526020016102aa565b50505050905090810190601f1680156102ef5780820380516001836020036101000a031916815260200191505b50848103835286518152865160209182019188019080838360005b8381101561032257818101518382015260200161030a565b50505050905090810190601f16801561034f5780820380516001836020036101000a031916815260200191505b50848103825285518152855160209182019187019080838360005b8381101561038257818101518382015260200161036a565b50505050905090810190601f1680156103af5780820380516001836020036101000a031916815260200191505b50995050505050505050505060405180910390f35b61022c610cf5565b610169600480360360808110156103e257600080fd5b81359190810190604081016020820135600160201b81111561040357600080fd5b82018360208201111561041557600080fd5b803590602001918460018302840111600160201b8311171561043657600080fd5b91908080601f01602080910402602001604051908101604052809392919081815260200183838082843760009201919091525092958435959094909350604081019250602001359050600160201b81111561049057600080fd5b8201836020820111156104a257600080fd5b803590602001918460018302840111600160201b831117156104c357600080fd5b91908080601f016020809104026020016040519081016040528093929190818152602001838380828437600092019190915250929550610cfb945050505050565b61022c610d77565b61022c610d7d565b61053a6004803603602081101561052a57600080fd5b50356001600160a01b0316610d83565b6040805192835260208301919091528051918290030190f35b6101696004803603602081101561056957600080fd5b5035610d9c565b61058d6004803603602081101561058657600080fd5b5035610db1565b6040518084815260200180602001838152602001828103825284818151815260200191508051906020019080838360005b838110156105d65781810151838201526020016105be565b50505050905090810190601f1680156106035780820380516001836020036101000a031916815260200191505b5094505050505060405180910390f35b610169600480360360c081101561062957600080fd5b81359190810190604081016020820135600160201b81111561064a57600080fd5b82018360208201111561065c57600080fd5b803590602001918460018302840111600160201b8311171561067d57600080fd5b91908080601f01602080910402602001604051908101604052809392919081815260200183838082843760009201919091525092958435959094909350604081019250602001359050600160201b8111156106d757600080fd5b8201836020820111156106e957600080fd5b803590602001918460018302840111600160201b8311171561070a57600080fd5b91908080601f0160208091040260200160405190810160405280939291908181526020018383808284376000920191909152509295949360208101935035915050600160201b81111561075c57600080fd5b82018360208201111561076e57600080fd5b803590602001918460018302840111600160201b8311171561078f57600080fd5b91908080601f0160208091040260200160405190810160405280939291908181526020018383808284376000920191909152509295505091359250610e5e915050565b61022c610f96565b6107f7600480360360208110156107f057600080fd5b5035610f9c565b604051808981526020018815151515815260200187815260200186151515158152602001856001600160a01b03166001600160a01b031681526020018060200184815260200180602001838103835286818151815260200191508051906020019080838360005b8381101561087657818101518382015260200161085e565b50505050905090810190601f1680156108a35780820380516001836020036101000a031916815260200191505b50838103825284518152845160209182019186019080838360005b838110156108d65781810151838201526020016108be565b50505050905090810190601f1680156109035780820380516001836020036101000a031916815260200191505b509a505050505050505050505060405180910390f35b6101696004803603604081101561092f57600080fd5b50803590602001356110fe565b61022c611124565b61094c611182565b604080516001600160a01b039092168252519081900360200190f35b60075460ff1681565b600954421180156109845750600a544211155b61098d57600080fd5b3360009081526003602090815260408083205480845260029092529091206001015460ff16806109cf575060008181526002602052604090206003015460ff16155b156109da5750610a14565b60009081526002602081815260408084206001818101805460ff191682179055908401869055858552600490925290922001805490910190555b50565b60008181526002602052604090205415801590610a46575060008181526002602052604090206003015460ff16155b15610a1457336000818152600360208181526040808420869055948352600290529290209091018054600160ff1990911617610100600160a81b031916610100909202919091179055565b6000816040516020018082805190602001908083835b60208310610ac65780518252601f199092019160209182019101610aa7565b6001836020036101000a038019825116818451168082178552505050505050905001915050604051602081830303815290604052805190602001209050919050565b60065481565b600b5481565b6004602090815260009182526040918290208054600180830180548651600293821615610100026000190190911692909204601f810186900486028301860190965285825291949293909290830182828015610bb15780601f10610b8657610100808354040283529160200191610bb1565b820191906000526020600020905b815481529060010190602001808311610b9457829003601f168201915b505050505090806002015490806003015490806004018054600181600116156101000203166002900480601f016020809104026020016040519081016040528092919081815260200182805460018160011615610100020316600290048015610c5b5780601f10610c3057610100808354040283529160200191610c5b565b820191906000526020600020905b815481529060010190602001808311610c3e57829003601f168201915b5050505060058301805460408051602060026001851615610100026000190190941693909304601f8101849004840282018401909252818152949594935090830182828015610ceb5780601f10610cc057610100808354040283529160200191610ceb565b820191906000526020600020905b815481529060010190602001808311610cce57829003601f168201915b5050505050905086565b60015481565b6000546001600160a01b03163314610d1257610d71565b600180548101905560008481526002602090815260409091208581558451610d4292600490920191860190611191565b506000848152600260209081526040909120600581018490558251610d6f92600690920191840190611191565b505b50505050565b60095481565b60085481565b6003602052600090815260409020805460019091015482565b33600090815260036020526040902060010155565b6005602090815260009182526040918290208054600180830180548651600293821615610100026000190190911692909204601f810186900486028301860190965285825291949293909290830182828015610e4e5780601f10610e2357610100808354040283529160200191610e4e565b820191906000526020600020905b815481529060010190602001808311610e3157829003601f168201915b5050505050908060020154905083565b6000546001600160a01b03163314610e7557610f8e565b60068054600190810190915560008781526004602090815260409091208881558751610ea8939190910191880190611191565b50600086815260046020818152604090922060028101849055600381018790558551610edc93919092019190860190611191565b5060008681526004602090815260409091208351610f0292600590920191850190611191565b5060005b600854811015610f3c57600081815260056020526040902054851415610f34576007805460ff191660011790555b600101610f06565b5060075460ff16610f8e5760088054600190810190915560008581526005602090815260409091208681558551610f7a939190910191860190611191565b506000848152600560205260408120600201555b505050505050565b600a5481565b60026020818152600092835260409283902080546001808301548386015460038501546004860180548a516101009682161587026000190190911699909904601f810189900489028a018901909a52898952949860ff93841698929793821696949091046001600160a01b031694919283018282801561105d5780601f106110325761010080835404028352916020019161105d565b820191906000526020600020905b81548152906001019060200180831161104057829003601f168201915b50505050600583015460068401805460408051602060026001851615610100026000190190941693909304601f810184900484028201840190925281815295969395939450908301828280156110f45780601f106110c9576101008083540402835291602001916110f4565b820191906000526020600020905b8154815290600101906020018083116110d757829003601f168201915b5050505050905088565b6000546001600160a01b0316331461111557611120565b6009829055600a8190555b5050565b6000600a54421161113457600080fd5b600060015b60065481101561117d57600081815260046020526040902060020154821015611175576000818152600460205260409020600201549092509050815b600101611139565b505090565b6000546001600160a01b031681565b828054600181600116156101000203166002900490600052602060002090601f016020900481019282601f106111d257805160ff19168380011785556111ff565b828001600101855582156111ff579182015b828111156111ff5782518255916020019190600101906111e4565b5061120b92915061120f565b5090565b61122991905b8082111561120b5760008155600101611215565b9056fea165627a7a72305820acfab6db77bff8cff9ed7286b1acf0444d585d07603cb187a214d79a83fcfaa20029",
  "source": "pragma solidity >=0.4.22 <0.6.0;\ncontract evote {\n\n    struct Voter {\n        uint vid;\n        bool voted;\n        uint vote;\n        bool registered;\n        address vadd;\n        string email;\n        uint con_id;\n        string constituency;\n    }\n    \n    struct Candidate {\n        uint cid;\n        string name;\n        uint voteCount;\n        uint constituencyId;\n        string constituencyName;\n        string party_name;\n    }\n    \n    struct VoterId {\n        uint eid;//ethereum id\n        bytes32 hash;\n    }\n    \n    \n    struct Constituency {\n        uint const_id;\n        string const_name;\n        uint winner_id;\n        \n    }\n    \n    address public admin;\n    uint256 public voterCount=0;\n    mapping(uint => Voter) public voters;\n    mapping(address=> VoterId) public voterids;\n    mapping(uint => Candidate) public candidates;\n    mapping(uint => Constituency) public constituencies;\n    uint public candidatesCount;\n    bool public constituency_exist = false;\n    uint public constituencyCount;\n    uint256 public startVote;\n    uint256 public endVote;\n    uint public nowTime; \n   \n    constructor() public {\n        admin = msg.sender;\n        }\n    \n    function setDates (uint startv,uint endv) public{\n        if (msg.sender != admin) return;\n        startVote=startv;\n        endVote=endv;\n    }\n    \n    modifier onlyVote()\n    {\n        require(now>startVote && now<=endVote);\n        _;\n    }\n    \n    modifier onlyResult()\n    {\n        require(now>endVote);\n        _;\n    }\n        \n    function addCandidate (uint toCandidate, string memory _name, uint _constid, string memory _constname, string memory _partyname,uint votes) public {\n         if (msg.sender != admin) return;\n        candidatesCount ++;\n        candidates[toCandidate].cid = toCandidate;\n        candidates[toCandidate].name = _name;\n        candidates[toCandidate].voteCount = votes;\n        candidates[toCandidate].constituencyId = _constid;\n        candidates[toCandidate].constituencyName = _constname;\n        candidates[toCandidate].party_name = _partyname;\n        \n        for(uint i=0;i < constituencyCount; i++)\n        {\n          if(constituencies[i].const_id==_constid)\n          {\n              constituency_exist=true;\n          }\n        }\n        \n        if(constituency_exist==false)\n        {\n            constituencyCount ++;\n            constituencies[_constid].const_id=_constid;\n            constituencies[_constid].const_name = _constname;\n            constituencies[_constid].winner_id = 0;\n            \n        }\n    }\n    \n    function giveRightToVote(uint toVoter, string memory em, uint con_id, string memory cons) public {\n        if (msg.sender != admin) return;\n        voterCount+=1;\n        voters[toVoter].vid = toVoter;\n        voters[toVoter].email = em;\n        voters[toVoter].con_id = con_id;\n        voters[toVoter].constituency = cons;\n        \n    }\n    //need to include otp thing\n    function registerToVote(uint toVoter) public {\n        if(voters[toVoter].vid!=0 && voters[toVoter].registered==false){\n        voterids[msg.sender].eid=toVoter;\n        voters[toVoter].registered=true;\n        voters[toVoter].vadd=msg.sender;\n        }\n        \n    }\n    function storeHash(bytes32 _hash) public{\n        voterids[msg.sender].hash = _hash;\n    }\n    \n    function vote(uint toCandidate) public onlyVote {\n        uint voterid;\n        voterid=voterids[msg.sender].eid;\n        if (voters[voterid].voted || voters[voterid].registered==false) return;\n        \n        voters[voterid].voted = true;\n        \n        voters[voterid].vote = toCandidate;\n        candidates[toCandidate].voteCount += 1;\n    }\n    \n    function winner() public view onlyResult returns (uint _winner) {\n        uint256 winnerVoteCount = 0;\n        for (uint cand = 1; cand < candidatesCount; cand++)\n            if (candidates[cand].voteCount > winnerVoteCount) {\n                winnerVoteCount = candidates[cand].voteCount;\n                _winner = cand;\n            }\n    }\n    function testKeccak(string memory s) public pure returns (bytes32) { \n        return keccak256(abi.encodePacked(s)); }\n    \n}",
  "sourcePath": "F:/BV/BlockVote-Truffle/contracts/evote.sol",
  "compiler": {
    "name": "solc",
    "version": "0.5.8+commit.23d335f2.Emscripten.clang"
  },
  "schemaVersion": "3.0.17",
  "updatedAt": "2020-04-24T08:06:22.286Z",
  "networkType": "ethereum",
  "devdoc": {
    "methods": {}
  },
  "userdoc": {
    "methods": {}
  }
}